{
  "contractName": "HospitalSystem",
  "abi": [
    {
      "inputs": [
        {
          "internalType": "bytes32",
          "name": "",
          "type": "bytes32"
        }
      ],
      "name": "appointments",
      "outputs": [
        {
          "internalType": "address",
          "name": "patientAddress",
          "type": "address"
        },
        {
          "internalType": "string",
          "name": "doctorName",
          "type": "string"
        },
        {
          "internalType": "uint256",
          "name": "dateTime",
          "type": "uint256"
        }
      ],
      "stateMutability": "view",
      "type": "function"
    },
    {
      "inputs": [
        {
          "internalType": "bytes32",
          "name": "",
          "type": "bytes32"
        }
      ],
      "name": "billing",
      "outputs": [
        {
          "internalType": "address",
          "name": "patientAddress",
          "type": "address"
        },
        {
          "internalType": "uint256",
          "name": "amountDue",
          "type": "uint256"
        },
        {
          "internalType": "uint256",
          "name": "date",
          "type": "uint256"
        }
      ],
      "stateMutability": "view",
      "type": "function"
    },
    {
      "inputs": [
        {
          "internalType": "bytes32",
          "name": "",
          "type": "bytes32"
        }
      ],
      "name": "insuranceVerification",
      "outputs": [
        {
          "internalType": "address",
          "name": "patientAddress",
          "type": "address"
        },
        {
          "internalType": "string",
          "name": "insuranceProvider",
          "type": "string"
        },
        {
          "internalType": "string",
          "name": "policyNumber",
          "type": "string"
        },
        {
          "internalType": "uint256",
          "name": "date",
          "type": "uint256"
        }
      ],
      "stateMutability": "view",
      "type": "function"
    },
    {
      "inputs": [
        {
          "internalType": "bytes32",
          "name": "",
          "type": "bytes32"
        }
      ],
      "name": "medicalRecords",
      "outputs": [
        {
          "internalType": "address",
          "name": "patientAddress",
          "type": "address"
        },
        {
          "internalType": "string",
          "name": "diagnosis",
          "type": "string"
        },
        {
          "internalType": "string",
          "name": "treatment",
          "type": "string"
        },
        {
          "internalType": "uint256",
          "name": "date",
          "type": "uint256"
        }
      ],
      "stateMutability": "view",
      "type": "function"
    },
    {
      "inputs": [
        {
          "internalType": "address",
          "name": "",
          "type": "address"
        }
      ],
      "name": "patients",
      "outputs": [
        {
          "internalType": "string",
          "name": "name",
          "type": "string"
        },
        {
          "internalType": "uint256",
          "name": "age",
          "type": "uint256"
        },
        {
          "internalType": "address",
          "name": "Address",
          "type": "address"
        },
        {
          "internalType": "string",
          "name": "contactDetails",
          "type": "string"
        }
      ],
      "stateMutability": "view",
      "type": "function"
    },
    {
      "inputs": [
        {
          "internalType": "string",
          "name": "_name",
          "type": "string"
        },
        {
          "internalType": "uint256",
          "name": "_age",
          "type": "uint256"
        },
        {
          "internalType": "address",
          "name": "_Address",
          "type": "address"
        },
        {
          "internalType": "string",
          "name": "_contactDetails",
          "type": "string"
        }
      ],
      "name": "registerPatient",
      "outputs": [],
      "stateMutability": "nonpayable",
      "type": "function"
    },
    {
      "inputs": [
        {
          "internalType": "address",
          "name": "_patientAddress",
          "type": "address"
        },
        {
          "internalType": "string",
          "name": "_doctorName",
          "type": "string"
        },
        {
          "internalType": "uint256",
          "name": "_dateTime",
          "type": "uint256"
        }
      ],
      "name": "scheduleAppointment",
      "outputs": [],
      "stateMutability": "nonpayable",
      "type": "function"
    },
    {
      "inputs": [
        {
          "internalType": "address",
          "name": "_patientAddress",
          "type": "address"
        },
        {
          "internalType": "uint256",
          "name": "_amountDue",
          "type": "uint256"
        },
        {
          "internalType": "uint256",
          "name": "_date",
          "type": "uint256"
        }
      ],
      "name": "createBilling",
      "outputs": [],
      "stateMutability": "nonpayable",
      "type": "function"
    },
    {
      "inputs": [
        {
          "internalType": "address",
          "name": "_patientAddress",
          "type": "address"
        },
        {
          "internalType": "string",
          "name": "_diagnosis",
          "type": "string"
        },
        {
          "internalType": "string",
          "name": "_treatment",
          "type": "string"
        },
        {
          "internalType": "uint256",
          "name": "_date",
          "type": "uint256"
        }
      ],
      "name": "createMedicalRecord",
      "outputs": [],
      "stateMutability": "nonpayable",
      "type": "function"
    },
    {
      "inputs": [
        {
          "internalType": "address",
          "name": "_patientAddress",
          "type": "address"
        },
        {
          "internalType": "string",
          "name": "_insuranceProvider",
          "type": "string"
        },
        {
          "internalType": "string",
          "name": "_policyNumber",
          "type": "string"
        },
        {
          "internalType": "uint256",
          "name": "_date",
          "type": "uint256"
        }
      ],
      "name": "verifyInsurance",
      "outputs": [],
      "stateMutability": "nonpayable",
      "type": "function"
    }
  ],
  "bytecode": "0x608060405234801561001057600080fd5b50611612806100206000396000f3fe608060405234801561001057600080fd5b506004361061009e5760003560e01c8063879123601161006657806387912360146101735780638e0f45c11461018f578063ad36769b146101ab578063c32b52b3146101dd578063ee26c353146101f95761009e565b806307e1695a146100a357806308204a1d146100d55780630869cfbc146100f157806322843b06146101245780632d767e1614610157575b600080fd5b6100bd60048036038101906100b89190610c7d565b61022c565b6040516100cc93929190610d04565b60405180910390f35b6100ef60048036038101906100ea9190610ed9565b610276565b005b61010b60048036038101906101069190610f78565b61037a565b60405161011b9493929190611024565b60405180910390f35b61013e60048036038101906101399190610c7d565b6104da565b60405161014e9493929190611077565b60405180910390f35b610171600480360381019061016c91906110ca565b61063a565b005b61018d60048036038101906101889190611139565b610721565b005b6101a960048036038101906101a49190610ed9565b6107fc565b005b6101c560048036038101906101c09190610c7d565b610900565b6040516101d49392919061118c565b60405180910390f35b6101f760048036038101906101f291906111ca565b6109d2565b005b610213600480360381019061020e9190610c7d565b610ad3565b6040516102239493929190611077565b60405180910390f35b60026020528060005260406000206000915090508060000160009054906101000a900473ffffffffffffffffffffffffffffffffffffffff16908060010154908060020154905083565b6000848260405160200161028b9291906112d2565b604051602081830303815290604052805190602001209050600060405180608001604052808773ffffffffffffffffffffffffffffffffffffffff168152602001868152602001858152602001848152509050806004600084815260200190815260200160002060008201518160000160006101000a81548173ffffffffffffffffffffffffffffffffffffffff021916908373ffffffffffffffffffffffffffffffffffffffff160217905550602082015181600101908161034e919061150a565b506040820151816002019081610364919061150a565b5060608201518160030155905050505050505050565b600060205280600052604060002060009150905080600001805461039d9061132d565b80601f01602080910402602001604051908101604052809291908181526020018280546103c99061132d565b80156104165780601f106103eb57610100808354040283529160200191610416565b820191906000526020600020905b8154815290600101906020018083116103f957829003601f168201915b5050505050908060010154908060020160009054906101000a900473ffffffffffffffffffffffffffffffffffffffff16908060030180546104579061132d565b80601f01602080910402602001604051908101604052809291908181526020018280546104839061132d565b80156104d05780601f106104a5576101008083540402835291602001916104d0565b820191906000526020600020905b8154815290600101906020018083116104b357829003601f168201915b5050505050905084565b60046020528060005260406000206000915090508060000160009054906101000a900473ffffffffffffffffffffffffffffffffffffffff16908060010180546105239061132d565b80601f016020809104026020016040519081016040528092919081815260200182805461054f9061132d565b801561059c5780601f106105715761010080835404028352916020019161059c565b820191906000526020600020905b81548152906001019060200180831161057f57829003601f168201915b5050505050908060020180546105b19061132d565b80601f01602080910402602001604051908101604052809291908181526020018280546105dd9061132d565b801561062a5780601f106105ff5761010080835404028352916020019161062a565b820191906000526020600020905b81548152906001019060200180831161060d57829003601f168201915b5050505050908060030154905084565b6000838260405160200161064f9291906112d2565b604051602081830303815290604052805190602001209050600060405180606001604052808673ffffffffffffffffffffffffffffffffffffffff168152602001858152602001848152509050806001600084815260200190815260200160002060008201518160000160006101000a81548173ffffffffffffffffffffffffffffffffffffffff021916908373ffffffffffffffffffffffffffffffffffffffff160217905550602082015181600101908161070c919061150a565b50604082015181600201559050505050505050565b600083826040516020016107369291906112d2565b604051602081830303815290604052805190602001209050600060405180606001604052808673ffffffffffffffffffffffffffffffffffffffff168152602001858152602001848152509050806002600084815260200190815260200160002060008201518160000160006101000a81548173ffffffffffffffffffffffffffffffffffffffff021916908373ffffffffffffffffffffffffffffffffffffffff16021790555060208201518160010155604082015181600201559050505050505050565b600084826040516020016108119291906112d2565b604051602081830303815290604052805190602001209050600060405180608001604052808773ffffffffffffffffffffffffffffffffffffffff168152602001868152602001858152602001848152509050806003600084815260200190815260200160002060008201518160000160006101000a81548173ffffffffffffffffffffffffffffffffffffffff021916908373ffffffffffffffffffffffffffffffffffffffff16021790555060208201518160010190816108d4919061150a565b5060408201518160020190816108ea919061150a565b5060608201518160030155905050505050505050565b60016020528060005260406000206000915090508060000160009054906101000a900473ffffffffffffffffffffffffffffffffffffffff16908060010180546109499061132d565b80601f01602080910402602001604051908101604052809291908181526020018280546109759061132d565b80156109c25780601f10610997576101008083540402835291602001916109c2565b820191906000526020600020905b8154815290600101906020018083116109a557829003601f168201915b5050505050908060020154905083565b600060405180608001604052808681526020018581526020018473ffffffffffffffffffffffffffffffffffffffff168152602001838152509050806000803373ffffffffffffffffffffffffffffffffffffffff1673ffffffffffffffffffffffffffffffffffffffff1681526020019081526020016000206000820151816000019081610a61919061150a565b506020820151816001015560408201518160020160006101000a81548173ffffffffffffffffffffffffffffffffffffffff021916908373ffffffffffffffffffffffffffffffffffffffff1602179055506060820151816003019081610ac8919061150a565b509050505050505050565b60036020528060005260406000206000915090508060000160009054906101000a900473ffffffffffffffffffffffffffffffffffffffff1690806001018054610b1c9061132d565b80601f0160208091040260200160405190810160405280929190818152602001828054610b489061132d565b8015610b955780601f10610b6a57610100808354040283529160200191610b95565b820191906000526020600020905b815481529060010190602001808311610b7857829003601f168201915b505050505090806002018054610baa9061132d565b80601f0160208091040260200160405190810160405280929190818152602001828054610bd69061132d565b8015610c235780601f10610bf857610100808354040283529160200191610c23565b820191906000526020600020905b815481529060010190602001808311610c0657829003601f168201915b5050505050908060030154905084565b6000604051905090565b600080fd5b600080fd5b6000819050919050565b610c5a81610c47565b8114610c6557600080fd5b50565b600081359050610c7781610c51565b92915050565b600060208284031215610c9357610c92610c3d565b5b6000610ca184828501610c68565b91505092915050565b600073ffffffffffffffffffffffffffffffffffffffff82169050919050565b6000610cd582610caa565b9050919050565b610ce581610cca565b82525050565b6000819050919050565b610cfe81610ceb565b82525050565b6000606082019050610d196000830186610cdc565b610d266020830185610cf5565b610d336040830184610cf5565b949350505050565b610d4481610cca565b8114610d4f57600080fd5b50565b600081359050610d6181610d3b565b92915050565b600080fd5b600080fd5b6000601f19601f8301169050919050565b7f4e487b7100000000000000000000000000000000000000000000000000000000600052604160045260246000fd5b610dba82610d71565b810181811067ffffffffffffffff82111715610dd957610dd8610d82565b5b80604052505050565b6000610dec610c33565b9050610df88282610db1565b919050565b600067ffffffffffffffff821115610e1857610e17610d82565b5b610e2182610d71565b9050602081019050919050565b82818337600083830152505050565b6000610e50610e4b84610dfd565b610de2565b905082815260208101848484011115610e6c57610e6b610d6c565b5b610e77848285610e2e565b509392505050565b600082601f830112610e9457610e93610d67565b5b8135610ea4848260208601610e3d565b91505092915050565b610eb681610ceb565b8114610ec157600080fd5b50565b600081359050610ed381610ead565b92915050565b60008060008060808587031215610ef357610ef2610c3d565b5b6000610f0187828801610d52565b945050602085013567ffffffffffffffff811115610f2257610f21610c42565b5b610f2e87828801610e7f565b935050604085013567ffffffffffffffff811115610f4f57610f4e610c42565b5b610f5b87828801610e7f565b9250506060610f6c87828801610ec4565b91505092959194509250565b600060208284031215610f8e57610f8d610c3d565b5b6000610f9c84828501610d52565b91505092915050565b600081519050919050565b600082825260208201905092915050565b60005b83811015610fdf578082015181840152602081019050610fc4565b60008484015250505050565b6000610ff682610fa5565b6110008185610fb0565b9350611010818560208601610fc1565b61101981610d71565b840191505092915050565b6000608082019050818103600083015261103e8187610feb565b905061104d6020830186610cf5565b61105a6040830185610cdc565b818103606083015261106c8184610feb565b905095945050505050565b600060808201905061108c6000830187610cdc565b818103602083015261109e8186610feb565b905081810360408301526110b28185610feb565b90506110c16060830184610cf5565b95945050505050565b6000806000606084860312156110e3576110e2610c3d565b5b60006110f186828701610d52565b935050602084013567ffffffffffffffff81111561111257611111610c42565b5b61111e86828701610e7f565b925050604061112f86828701610ec4565b9150509250925092565b60008060006060848603121561115257611151610c3d565b5b600061116086828701610d52565b935050602061117186828701610ec4565b925050604061118286828701610ec4565b9150509250925092565b60006060820190506111a16000830186610cdc565b81810360208301526111b38185610feb565b90506111c26040830184610cf5565b949350505050565b600080600080608085870312156111e4576111e3610c3d565b5b600085013567ffffffffffffffff81111561120257611201610c42565b5b61120e87828801610e7f565b945050602061121f87828801610ec4565b935050604061123087828801610d52565b925050606085013567ffffffffffffffff81111561125157611250610c42565b5b61125d87828801610e7f565b91505092959194509250565b60008160601b9050919050565b600061128182611269565b9050919050565b600061129382611276565b9050919050565b6112ab6112a682610cca565b611288565b82525050565b6000819050919050565b6112cc6112c782610ceb565b6112b1565b82525050565b60006112de828561129a565b6014820191506112ee82846112bb565b6020820191508190509392505050565b7f4e487b7100000000000000000000000000000000000000000000000000000000600052602260045260246000fd5b6000600282049050600182168061134557607f821691505b602082108103611358576113576112fe565b5b50919050565b60008190508160005260206000209050919050565b60006020601f8301049050919050565b600082821b905092915050565b6000600883026113c07fffffffffffffffffffffffffffffffffffffffffffffffffffffffffffffffff82611383565b6113ca8683611383565b95508019841693508086168417925050509392505050565b6000819050919050565b60006114076114026113fd84610ceb565b6113e2565b610ceb565b9050919050565b6000819050919050565b611421836113ec565b61143561142d8261140e565b848454611390565b825550505050565b600090565b61144a61143d565b611455818484611418565b505050565b5b818110156114795761146e600082611442565b60018101905061145b565b5050565b601f8211156114be5761148f8161135e565b61149884611373565b810160208510156114a7578190505b6114bb6114b385611373565b83018261145a565b50505b505050565b600082821c905092915050565b60006114e1600019846008026114c3565b1980831691505092915050565b60006114fa83836114d0565b9150826002028217905092915050565b61151382610fa5565b67ffffffffffffffff81111561152c5761152b610d82565b5b611536825461132d565b61154182828561147d565b600060209050601f8311600181146115745760008415611562578287015190505b61156c85826114ee565b8655506115d4565b601f1984166115828661135e565b60005b828110156115aa57848901518255600182019150602085019450602081019050611585565b868310156115c757848901516115c3601f8916826114d0565b8355505b6001600288020188555050505b50505050505056fea2646970667358221220719c9ddf792db22f0fbfd156eddee2f6dd78773cd1dad9ff2436a9b04c575f2964736f6c63430008130033",
  "immutableReferences": {},
  "source": "// SPDX-License-Identifier: MIT\npragma solidity ^0.8.0;\n\ncontract HospitalSystem {\n    struct Patient {\n        string name;\n        uint age;\n        address Address;\n        string contactDetails;\n    }\n\n    mapping (address => Patient) public patients;\n\n    struct Appointment {\n        address patientAddress;\n        string doctorName;\n        uint dateTime;\n    }\n\n    mapping (bytes32 => Appointment) public appointments;\n\n    struct Billing {\n        address patientAddress;\n        uint amountDue;\n        uint date;\n    }\n\n    mapping (bytes32 => Billing) public billing;\n\n    struct MedicalRecord {\n        address patientAddress;\n        string diagnosis;\n        string treatment;\n        uint date;\n    }\n\n    mapping (bytes32 => MedicalRecord) public medicalRecords;\n\n    struct Insurance {\n        address patientAddress;\n        string insuranceProvider;\n        string policyNumber;\n        uint date;\n    }\n\n    mapping (bytes32 => Insurance) public insuranceVerification;\n\n    function registerPatient(string memory _name, uint _age, address _Address, string memory _contactDetails) public {\n        Patient memory newPatient = Patient(_name, _age, _Address, _contactDetails);\n        patients[msg.sender] = newPatient;\n    }\n\n    function scheduleAppointment(address _patientAddress, string memory _doctorName, uint _dateTime) public {\n        bytes32 appointmentId = keccak256(abi.encodePacked(_patientAddress, _dateTime));\n        Appointment memory newAppointment = Appointment(_patientAddress, _doctorName, _dateTime);\n        appointments[appointmentId] = newAppointment;\n    }\n\n    function createBilling(address _patientAddress, uint _amountDue, uint _date) public {\n        bytes32 billingId = keccak256(abi.encodePacked(_patientAddress, _date));\n        Billing memory newBilling = Billing(_patientAddress, _amountDue, _date);\n        billing[billingId] = newBilling;\n    }\n\n    function createMedicalRecord(address _patientAddress, string memory _diagnosis, string memory _treatment, uint _date) public {\n        bytes32 recordId = keccak256(abi.encodePacked(_patientAddress, _date));\n        MedicalRecord memory newRecord = MedicalRecord(_patientAddress, _diagnosis, _treatment, _date);\n        medicalRecords[recordId] = newRecord;\n    }\n\n    function verifyInsurance(address _patientAddress, string memory _insuranceProvider, string memory _policyNumber, uint _date) public {\n        bytes32 verificationId = keccak256(abi.encodePacked(_patientAddress, _date));\n        Insurance memory newVerification = Insurance(_patientAddress, _insuranceProvider, _policyNumber, _date);\n        insuranceVerification[verificationId] = newVerification;\n    }\n}",
  "sourcePath": "/home/ted/Desktop/Solidity/hospital-management/contracts/hopital.sol",
  "compiler": {
    "name": "solc",
    "version": "0.8.19+commit.7dd6d404.Emscripten.clang"
  },
  "schemaVersion": "3.4.13",
  "updatedAt": "2023-04-12T00:38:02.244Z",
  "devdoc": {
    "kind": "dev",
    "methods": {},
    "version": 1
  },
  "userdoc": {
    "kind": "user",
    "methods": {},
    "version": 1
  }
}